:1000000012C02CC02BC02AC029C028C027C026C0BF
:1000100025C024C023C022C021C020C01FC01EC0D4
:100020001DC01CC01BC011241FBECFE5D4E0DEBF25
:10003000CDBF10E0A0E6B0E0ECE1F1E002C0059039
:100040000D92A036B107D9F710E0A0E6B0E001C0EC
:100050001D92A036B107E1F702D05EC0D1CF8FB5B7
:10006000826A8FBD8EB58B618EBD83EC99E097BDA2
:1000700086BD87B3866087BB63E171E028EC30E022
:100080004AE550E07BBD6ABD80E29EE4F90131970C
:10009000F1F70197D9F75BBD4ABD80E29EE4F90113
:1000A0003197F1F70197D9F7EDCF2AB53BB5AC0100
:1000B000280F391F2451314038F48AB59BB5480FB9
:1000C000591F5BBD4ABD089583E191E09BBD8ABD88
:1000D00008952AB53BB5AC01281B390B2A353105EB
:1000E00028F08AB59BB5841B950B02C08AE590E089
:1000F0009BBD8ABD08959BBD8ABD08958FB5826A58
:100100008FBD8EB58B618EBD83EC99E097BD86BDAA
:0C01100087B3866087BB0895F894FFCF8A
:00000001FF
