:1000000012C02CC02BC02AC029C028C027C026C0BF
:1000100025C024C023C022C021C020C01FC01EC0D4
:100020001DC01CC01BC011241FBECFE5D4E0DEBF25
:10003000CDBF10E0A0E6B0E0EEEAF4E002C005902B
:100040000D92A038B107D9F711E0A0E8B0E001C0E7
:100050001D92A132B107E1F702D027C2D1CFDF92C2
:10006000EF92FF920F931F93DF93CF93CDB7DEB73D
:10007000E2970FB6F894DEBF0FBECDBFB89888B335
:100080008FEF88BB94B384BB83E390E033D18E01C0
:100090000F5F1F4FDD24DA9488ECE82EF12CB09B23
:1000A0000FC0D5BA60E670E0C80175D1C8012ED185
:1000B00088E893E1F7013197F1F70197D9F7EFCF8E
:1000C00015BA62E770E0C80166D1C8011FD188E89F
:1000D00093E1F7013197F1F70197D9F7E0CFCF938B
:1000E000DF93FC01EB01423069F46AE070E079D102
:1000F000605D6883CF016AE070E073D1805D8983C1
:100100001A8241C04330C1F464E670E06AD19C01B8
:10011000CF0164E670E065D1605D6883C9016AE083
:1001200070E05FD1605D6983C9016AE070E059D118
:10013000805D8A831B8227C0443029F568EE73E016
:1001400050D19C01CF0168EE73E04BD1605D6883B4
:10015000C90164E670E045D1482FE92FC90164E682
:1001600070E03FD1605D6983842F9E2F6AE070E06C
:1001700038D1605D6A83842F9E2F6AE070E031D1B0
:10018000805D8B831C82DF91CF910895382FFB0116
:10019000282F22952F70822F90E00A9714F0295C67
:1001A00001C0205D2083832F90E08F709070232FFB
:1001B0002F700A9714F0295C01C0205D2183128200
:1001C000089580538A3008F080E008952F923F927E
:1001D0004F925F926F927F928F929F92AF92BF9257
:1001E000CF92DF92EF92FF920F931F93DF93CF9303
:1001F000CDB7DEB73B014C0119012A016D897E891B
:100200008F89988D6A197B098C099D09621A730A76
:10021000840A950AA4019301C5D0E218F3080409E1
:100220001509A8019701F0D02A0D3B1D4C1D5D1D3D
:10023000B901CA01CF91DF911F910F91FF90EF900B
:10024000DF90CF90BF90AF909F908F907F906F90F6
:100250005F904F903F902F900895FC01613031F4F2
:100260008081482F50E04053504042C0623059F4E2
:1002700080819AE0899FA00111248181480F511D3E
:100280004051524035C0633061F4908184E6989FBC
:10029000A00111248281480F511D405D544181818C
:1002A00021C0643019F040E050E022C08381482F23
:1002B00050E0405D5441808190E0C09728EE33E0EB
:1002C000BC01629FC001639F900D729F900D11242D
:1002D000480F591F818124E6829FC0011124480FD5
:1002E000591F82812AE0829FC0011124480F591FA3
:1002F000CA0108951BB828E92AB926E820BD90BD97
:1003000089B908955D9BFECF8CB90895FC0104C0A6
:100310005D9BFECF8CB9319680818823C9F7089503
:10032000FC0104C05D9BFECF8CB93196808188238F
:10033000C9F75D9BFECF8DE08CB90895FC0104C028
:100340005D9BFECF8CB9319680818823C9F75D9B78
:10035000FECF8DE08CB95D9BFECF8AE08CB908950D
:10036000982F8D3071F08A3061F080912001E82F54
:10037000F0E0E058FF4F90838F5F8093200180E092
:100380000895E0912001F0E0E058FF4F10821092B4
:10039000200181E00895FB01DC0101900D92002015
:1003A000E1F70895629FD001739FF001829FE00DF5
:1003B000F11D649FE00DF11D929FF00D839FF00DE4
:1003C000749FF00D659FF00D9927729FB00DE11D90
:1003D000F91F639FB00DE11DF91FBD01CF0111246D
:1003E000089597FB092E07260AD077FD04D027D061
:1003F00006D000201AF4709561957F4F0895F6F7A6
:10040000909581959F4F089597FB092E05260ED054
:1004100057FD04D028D00AD0001C38F450954095E0
:10042000309521953F4F4F4F5F4F0895F6F79095C8
:100430008095709561957F4F8F4F9F4F0895AA1BB0
:10044000BB1B51E107C0AA1FBB1FA617B70710F0BF
:10045000A61BB70B881F991F5A95A9F780959095F1
:10046000BC01CD010895A1E21A2EAA1BBB1BFD0100
:100470000DC0AA1FBB1FEE1FFF1FA217B307E40783
:10048000F50720F0A21BB30BE40BF50B661F771FDB
:10049000881F991F1A9469F76095709580959095BB
:0E04A0009B01AC01BD01CF010895F894FFCF80
:1004AE004F424A4543542044455445435445440A1B
:1004BE000D00204E4F204F424A4543540A0D000076
:00000001FF
