:1000000012C02CC02BC02AC029C028C027C026C0BF
:1000100025C024C023C022C021C020C01FC01EC0D4
:100020001DC01CC01BC011241FBECFE5D4E0DEBF25
:10003000CDBF10E0A0E6B0E0E2E1F6E002C005903E
:100040000D92AE37B107D9F710E0AEE7B0E001C0CE
:100050001D92AE37B107E1F702D0D9C2D1CF3ED160
:1000600080E690E0C6D180E090E00895CF93DF93E2
:10007000FC01EB01423069F46AE070E064D2605D3B
:100080006883CF016AE070E05ED2805D89831A8266
:1000900041C04330C1F464E670E055D29C01CF0109
:1000A00064E670E050D2605D6883C9016AE070E088
:1000B0004AD2605D6983C9016AE070E044D2805D24
:1000C0008A831B8227C0443029F568EE73E03BD257
:1000D0009C01CF0168EE73E036D2605D6883C90190
:1000E00064E670E030D2482FE92FC90164E670E081
:1000F0002AD2605D6983842F9E2F6AE070E023D24C
:10010000605D6A83842F9E2F6AE070E01CD2805D60
:100110008B831C82DF91CF910895382FFB01282F0C
:1001200022952F70822F90E00A9714F0295C01C06D
:10013000205D2083832F90E08F709070232F2F708D
:100140000A9714F0295C01C0205D21831282089572
:1001500080538A3008F080E008952F923F924F92AA
:100160005F926F927F928F929F92AF92BF92CF9247
:10017000DF92EF92FF920F931F93DF93CF93CDB750
:10018000DEB73B014C0119012A016D897E898F89F7
:10019000988D6A197B098C099D09621A730A840A71
:1001A000950AA4019301B0D1E218F30804091509D6
:1001B000A8019701DBD12A0D3B1D4C1D5D1DB90126
:1001C000CA01CF91DF911F910F91FF90EF90DF90C7
:1001D000CF90BF90AF909F908F907F906F905F90E7
:1001E0004F903F902F900895FC01613031F4808151
:1001F000482F50E04053504042C0623059F4808153
:100200009AE0899FA00111248181480F511D40511E
:10021000524035C0633061F4908184E6989FA0011C
:1002200011248281480F511D405D5441818121C0BC
:10023000643019F040E050E022C08381482F50E044
:10024000405D5441808190E0C09728EE33E0BC01CE
:10025000629FC001639F900D729F900D1124480F03
:10026000591F818124E6829FC0011124480F591F24
:1002700082812AE0829FC0011124480F591FCA01C0
:100280000895282F207F92B3922B92BB92B32F60B8
:10029000292322BB929A92B39C7F92BB20ED37E038
:1002A000F9013197F1F792B3987F92BBE0E2FEE457
:1002B0003197F1F78295807F92B3982B92BB92B3DE
:1002C0008F60892382BB929A82B38C7F82BBC901E3
:1002D0000197F1F782B3887F82BB089581B38FEFD6
:1002E00081BB88E893E128EC30E0F9013197F1F720
:1002F0000197D9F783E3C5DF88EE93E028EC30E07F
:10030000F9013197F1F70197D9F782E3BADF88EE67
:1003100093E028EC30E0F9013197F1F70197D9F734
:1003200088E2AFDF88EE93E028EC30E0F901319706
:10033000F1F70197D9F78CE0A4DF88EE93E028EC81
:1003400030E0F9013197F1F70197D9F781E099DFB2
:1003500088EE93E028EC30E0F9013197F1F701974E
:10036000D9F786E08EDF88EE93E028EC30E0F901E3
:100370003197F1F70197D9F782E083DF80ED97E0BD
:1003800028EC30E0F9013197F1F70197D9F708959A
:1003900092B3982B92BB92B38F60982392BB929AA0
:1003A00082B38C7F82BB80ED97E00197F1F782B337
:1003B000887F82BB089592B3982B92BB92B38F60D3
:1003C000982392BB82B3856082BB919880ED97E0C1
:1003D0000197F1F7909A82B3897F82BB08951F93AA
:1003E000182F807FE8DF812F8295807FE4DF1F91C7
:1003F00008950F931F93CF93DF93182F092F80E851
:1004000040DF80E49CE90197F1F7212F302FC901EB
:10041000EC0100E117E204C0E2DFC8010197F1F747
:1004200089918823C9F7DF91CF911F910F9108958A
:100430000F931F93CF93DF93182F092F80EC21DFA9
:1004400080E49CE90197F1F7212F302FC901EC01DD
:1004500000E117E204C0C3DFC8010197F1F78991F9
:100460008823C9F7DF91CF911F910F9108950F93C2
:100470001F93CF93DF93142F052F813019F4862F0C
:10048000805802C0862F8054FCDE80E49CE90197EE
:10049000F1F7812F902F9C01E90100E117E204C0E0
:1004A0009EDFC8010197F1F789918823C9F7DF9191
:1004B000CF911F910F9108950F931F93CF93DF93C7
:1004C000162F072FDEDE80E49CE90197F1F7212F3C
:1004D000302FC901EC0100E117E204C080DFC80140
:1004E0000197F1F789918823C9F7DF91CF911F9187
:1004F0000F910895813021F48CE690E07ADF089521
:100500008CE690E095DF0895629FD001739FF00123
:10051000829FE00DF11D649FE00DF11D929FF00D93
:10052000839FF00D749FF00D659FF00D9927729FCA
:10053000B00DE11DF91F639FB00DE11DF91FBD0155
:10054000CF011124089597FB092E07260AD077FDC5
:1005500004D027D006D000201AF4709561957F4F03
:100560000895F6F7909581959F4F089597FB092E72
:1005700005260ED057FD04D028D00AD0001C38F430
:1005800050954095309521953F4F4F4F5F4F0895BF
:10059000F6F790958095709561957F4F8F4F9F4F9F
:1005A0000895AA1BBB1B51E107C0AA1FBB1FA617BA
:1005B000B70710F0A61BB70B881F991F5A95A9F70C
:1005C00080959095BC01CD010895A1E21A2EAA1B39
:1005D000BB1BFD010DC0AA1FBB1FEE1FFF1FA217F3
:1005E000B307E407F50720F0A21BB30BE40BF50BF0
:1005F000661F771F881F991F1A9469F76095709579
:10060000809590959B01AC01BD01CF010895F894B0
:02061000FFCF1A
:1006120048454C4C4F20574F524C4400202020203C
:0E06220020202020202020202020202000004A
:00000001FF
