:1000000012C02CC02BC02AC029C028C027C026C0BF
:1000100025C024C023C022C021C020C01FC01EC0D4
:100020001DC01CC01BC011241FBECFE5D4E0DEBF25
:10003000CDBF10E0A0E6B0E0EEEAFAE002C0059025
:100040000D92A038B107D9F711E0A0E8B0E001C0E7
:100050001D92A132B107E1F702D027C5D1CF7F921F
:100060008F929F92AF92BF92CF92DF92EF92FF92C8
:100070000F931F93DF93CF93CDB7DEB7E6970FB6FD
:10008000F894DEBF0FBECDBF8FEF87BB4CD083E3AC
:1000900090E069D120E137E245E0E42EF12CEC0E4E
:1000A000FD1E97E7892E90E0992E6E010894C11CE1
:1000B000D11C77247A9488ECA82EB12C05C0C501F8
:1000C0000197F1F72150304021153105C1F781E04A
:1000D0002FD08C0183E00132180720F018BA60E6B7
:1000E00070E003C078BA68E670E0C7018DD1C7013F
:1000F00046D11F930F939F928F92DF92CF928BD115
:10010000C6013DD18DE090E036D18AE090E033D158
:1001100020E137E28DB79EB706960FB6F8949EBFE2
:100120000FBE8DBFCCCF3E9A86B1876886B9089541
:10013000877097B1982B97B997B1886F892387B942
:10014000369A349BFECF349A24B135B1C901089553
:10015000CF93DF93FC01EB01423069F46AE070E079
:1001600009D4605D6883CF016AE070E003D4805DEC
:1001700089831A8241C04330C1F464E670E0FAD347
:100180009C01CF0164E670E0F5D3605D6883C9012E
:100190006AE070E0EFD3605D6983C9016AE070E0F6
:1001A000E9D3805D8A831B8227C0443029F568EE3D
:1001B00073E0E0D39C01CF0168EE73E0DBD3605DB8
:1001C0006883C90164E670E0D5D3482FE92FC901DF
:1001D00064E670E0CFD3605D6983842F9E2F6AE070
:1001E00070E0C8D3605D6A83842F9E2F6AE070E060
:1001F000C1D3805D8B831C82DF91CF910895382F0E
:10020000FB01282F22952F70822F90E00A9714F07F
:10021000295C01C0205D2083832F90E08F70907057
:10022000232F2F700A9714F0295C01C0205D2183D1
:100230001282089580538A3008F080E008952F924A
:100240003F924F925F926F927F928F929F92AF9266
:10025000BF92CF92DF92EF92FF920F931F93DF93A3
:10026000CF93CDB7DEB73B014C0119012A016D894F
:100270007E898F89988D6A197B098C099D09621A7C
:10028000730A840A950AA401930155D3E218F3086E
:1002900004091509A801970180D32A0D3B1D4C1DA7
:1002A0005D1DB901CA01CF91DF911F910F91FF90A0
:1002B000EF90DF90CF90BF90AF909F908F907F9006
:1002C0006F905F904F903F902F900895FC016130A8
:1002D00031F48081482F50E04053504042C062309A
:1002E00059F480819AE0899FA00111248181480FEF
:1002F000511D4051524035C0633061F4908184E615
:10030000989FA00111248281480F511D405D5441E6
:10031000818121C0643019F040E050E022C0838127
:10032000482F50E0405D5441808190E0C09728EE16
:1003300033E0BC01629FC001639F900D729F900DDE
:100340001124480F591F818124E6829FC001112486
:10035000480F591F82812AE0829FC0011124480F53
:10036000591FCA0108951BB828E92AB926E820BDFB
:1003700090BD89B908955D9BFECF8CB90895FC01AD
:1003800004C05D9BFECF8CB9319680818823C9F76C
:100390000895FC0104C05D9BFECF8CB9319680812D
:1003A0008823C9F75D9BFECF8DE08CB90895FC01D1
:1003B00004C05D9BFECF8CB9319680818823C9F73C
:1003C0005D9BFECF8DE08CB95D9BFECF8AE08CB942
:1003D0000895982F8D3071F08A3061F0809120015E
:1003E000E82FF0E0E058FF4F90838F5F809320016B
:1003F00080E00895E0912001F0E0E058FF4F108286
:100400001092200181E00895FB01DC0101900D9222
:100410000020E1F70895AEE0B0E0E0E1F2E01CC3B7
:100420000D891E8986E08C831A8309838FEF9FE7ED
:100430009E838D83CE014996AC016F89788DCE0164
:10044000019609D02F813885020F131FF801108201
:100450002E96E4E01DC3ABE0B0E0E0E3F2E0EEC2D4
:100460003C012B015A01FC0117821682838181FD18
:1004700003C06FEF7FEFBBC19AE0892E1E01089485
:10048000211C311CF3012381F20123FD859123FFFF
:1004900081912F01882309F4A7C1853239F423FD06
:1004A000859123FF81912F01853221F4B30190E0E2
:1004B000B8D1E8CF982FDD24CC249924FFE1FD1595
:1004C000D0F09B3269F09C3228F4903259F093328C
:1004D00091F40EC09D3249F0903369F441E024C09C
:1004E00052E0D52A84E0D82A28C098E0D92A25C02D
:1004F000E0E1DE2A22C0D7FC29C0892F80538A3050
:1005000070F4D6FE05C0989C902C1124980E15C04E
:10051000C89CC02C1124C80EF0E2DF2A0EC09E3207
:1005200029F4D6FC61C140E4D42A07C09C3619F4F2
:1005300050E8D52A02C0983649F4F20123FD95917E
:1005400023FF91912F01992309F0B8CF892F85546A
:10055000833018F08052833038F444E050E0A40E29
:10056000B51E5FE359830FC0933631F0933779F0AE
:10057000933509F052C01FC0F5018081898342E0A4
:1005800050E0A40EB51E710101E010E011C0F501AC
:10059000E080F180D6FC03C06FEF7FEF02C0692DD1
:1005A00070E042E050E0A40EB51EC7012FD18C01CF
:1005B0005FE7D52213C0F501E080F180D6FC03C0CF
:1005C0006FEF7FEF02C0692D70E042E050E0A40EB3
:1005D000B51EC70110D18C0150E8D52AD3FE06C044
:1005E00018C0B30180E290E01CD1CA948C2D90E039
:1005F00008171907B0F30DC0F701D7FC8591D7FE96
:1006000081917F01B30190E00CD1C110CA940150D7
:1006100010400115110581F7E4C0943611F09936A8
:1006200069F5D7FE08C0F501E080F18002811381F1
:1006300044E050E00AC0F501808191817C010027EF
:10064000F7FC0095102F42E050E0A40EB51E5FE6C7
:10065000D52217FF0AC010950095F094E094E11C94
:10066000F11C011D111D80E8D82A2AE030E0A1010B
:10067000C801B70102D1F82EF2183FC0953729F40E
:100680001D2D1F7E2AE030E01DC01D2D197F9F36D5
:1006900061F0903720F4983509F0A6C00FC090376C
:1006A00039F0983709F0A0C004C028E030E00AC053
:1006B000106114FD146020E130E004C014FD1660E8
:1006C00020E132E017FF08C0F5016081718182816D
:1006D000938144E050E008C0F50180819181BC0124
:1006E00080E090E042E050E0A40EB51EA101C5D02C
:1006F000F82EF2188FE7D82ED122D6FE0BC05EEF6F
:10070000D522F91438F4D4FE07C0D2FC05C08FEE10
:10071000D82202C01F2D01C0192DD4FE0DC0FE012C
:10072000EF0DF11D8081803319F499EED92208C0B4
:100730001F5FD2FE05C003C08D2D867809F01F5FB4
:100740000D2DD3FC13C0D0FE0EC01C1510F09F2C35
:100750000AC09F2C9C0C911A1C2D05C0B30180E28D
:1007600090E05FD01F5F1C15C8F304C01C1510F487
:10077000C11A01C0CC2404FF0FC0B30180E390E094
:1007800050D002FF1CC001FD03C088E790E002C00A
:1007900088E590E0B3010CC0802F867881F001FFDE
:1007A00002C08BE201C080E2D7FC8DE2B30190E091
:1007B00038D005C0B30180E390E033D09A94F914A7
:1007C000C8F3FA94F101EF0DF11DB301808190E0BF
:1007D00028D0FF20B1F705C0B30180E290E021D01E
:1007E000CA94CC20C9F74ECEF30166817781CB0144
:1007F0002B96E2E13FC1FC01059061507040011071
:10080000D8F7809590958E0F9F1F0895FC01615039
:10081000704001900110D8F7809590958E0F9F1F22
:1008200008950F931F93CF93DF938C01EB018B817E
:1008300081FF1BC082FF0DC02E813F818C819D8175
:100840002817390764F4E881F9810193F983E88373
:1008500006C0E885F985802F0995892B31F48E81B2
:100860009F8101969F838E8302C00FEF1FEFC80107
:10087000DF91CF911F910F910895FA01AA27283097
:1008800051F1203181F1E8946F936E7F6E5F7F4F5D
:100890008F4F9F4FAF4FB1E03ED0B4E03CD0670FD9
:1008A000781F891F9A1FA11D680F791F8A1F911D2C
:1008B000A11D6A0F711D811D911DA11D20D009F47C
:1008C00068943F912AE0269F11243019305D3193BE
:1008D000DEF6CF010895462F4770405D4193B3E0A7
:1008E0000FD0C9F7F6CF462F4F70405D4A3318F04E
:1008F000495D31FD4052419302D0A9F7EACFB4E0FF
:10090000A6959795879577956795BA95C9F70097B6
:100910006105710508959B01AC010A2E0694579557
:10092000479537952795BA95C9F7620F731F841FAE
:10093000951FA01D0895629FD001739FF001829FB3
:10094000E00DF11D649FE00DF11D929FF00D839F5E
:10095000F00D749FF00D659FF00D9927729FB00DFB
:10096000E11DF91F639FB00DE11DF91FBD01CF010E
:100970001124089597FB092E07260AD077FD04D08D
:1009800027D006D000201AF4709561957F4F089506
:10099000F6F7909581959F4F089597FB092E0526B0
:1009A0000ED057FD04D028D00AD0001C38F4509542
:1009B0004095309521953F4F4F4F5F4F0895F6F783
:1009C00090958095709561957F4F8F4F9F4F0895BB
:1009D000AA1BBB1B51E107C0AA1FBB1FA617B70765
:1009E00010F0A61BB70B881F991F5A95A9F7809581
:1009F0009095BC01CD010895A1E21A2EAA1BBB1B44
:100A0000FD010DC0AA1FBB1FEE1FFF1FA217B307DA
:100A1000E407F50720F0A21BB30BE40BF50B661FF0
:100A2000771F881F991F1A9469F7609570958095B4
:100A300090959B01AC01BD01CF0108952F923F928B
:100A40004F925F926F927F928F929F92AF92BF92DE
:100A5000CF92DF92EF92FF920F931F93CF93DF938A
:100A6000CDB7DEB7CA1BDB0B0FB6F894DEBF0FBEE7
:100A7000CDBF09942A88398848885F846E847D8434
:100A80008C849B84AA84B984C884DF80EE80FD8036
:100A90000C811B81AA81B981CE0FD11D0FB6F894AC
:0E0AA000DEBF0FBECDBFED010895F894FFCF6D
:100AAE006E6F726D616C0A006669726520646574A2
:100ABE0065637465640A006164633D25640A000021
:00000001FF
