:1000000012C02CC02BC02AC029C028C027C026C0BF
:1000100025C024C023C022C021C020C01FC01EC0D4
:100020001DC01CC01BC011241FBECFE5D4E0DEBF25
:10003000CDBF10E0A0E6B0E0E0E3F5E002C005903F
:100040000D92AA37B107D9F710E0AAE7B0E001C0D6
:100050001D92AD3CB107E1F727D068C2D1CF6AE06D
:1000600070E014D2CB0160937C0090937D0043E05C
:1000700062EB70E042D082EB90E056D180E690E0F7
:1000800053D18DE04DD18AE04BD180917C0090918D
:100090007D000D9744F463E670E080E890E0BCD109
:1000A00080E890E041D10895CF93DF9380E197E21B
:1000B00028EC30E0F9013197F1F70197D9F786E79D
:1000C00090E04AD1BB98C39A59D1B39B03C083E354
:1000D00090E002C088E090E01BD1C8ECD0E076D17F
:1000E00080937A0090937B00BADF88EE93E0FE0164
:1000F0003197F1F70197D9F7F2CFCF93DF93FC0156
:10010000EB01423069F46AE070E0C0D1605D688361
:10011000CF016AE070E0BAD1805D89831A8241C064
:100120004330C1F464E670E0B1D19C01CF0164E6D4
:1001300070E0ACD1605D6883C9016AE070E0A6D16F
:10014000605D6983C9016AE070E0A0D1805D8A8347
:100150001B8227C0443029F568EE73E097D19C01DB
:10016000CF0168EE73E092D1605D6883C90164E6F7
:1001700070E08CD1482FE92FC90164E670E086D188
:10018000605D6983842F9E2F6AE070E07FD1605D9F
:100190006A83842F9E2F6AE070E078D1805D8B8324
:1001A0001C82DF91CF910895382FFB01282F2295D3
:1001B0002F70822F90E00A9714F0295C01C0205D17
:1001C0002083832F90E08F709070232F2F700A97D9
:1001D00014F0295C01C0205D2183128208958053B0
:1001E0008A3008F080E008952F923F924F925F92FC
:1001F0006F927F928F929F92AF92BF92CF92DF9237
:10020000EF92FF920F931F93DF93CF93CDB7DEB79B
:100210003B014C0119012A016D897E898F89988DD6
:100220006A197B098C099D09621A730A840A950A66
:10023000A4019301F8D0E218F30804091509A801F4
:10024000970137D12A0D3B1D4C1D5D1DB901CA0117
:10025000CF91DF911F910F91FF90EF90DF90CF90A2
:10026000BF90AF909F908F907F906F905F904F90D6
:100270003F902F900895FC01613031F48081482F28
:1002800050E04053504042C0623059F480819AE0BF
:10029000899FA00111248181480F511D4051524076
:1002A00035C0633061F4908184E6989FA0011124E9
:1002B0008281480F511D405D5441818121C06430CD
:1002C00019F040E050E022C08381482F50E0405DAB
:1002D0005441808190E0C09728EE33E0BC01629FDA
:1002E000C001639F900D729F900D1124480F591FFC
:1002F000818124E6829FC0011124480F591F828109
:100300002AE0829FC0011124480F591FCA01089595
:100310001BB828E92AB926E820BD90BD89B90895FF
:100320005D9BFECF8CB90895FC0104C05D9BFECFA0
:100330008CB9319680818823C9F70895FC0104C0E7
:100340005D9BFECF8CB9319680818823C9F75D9B78
:10035000FECF8DE08CB90895FC0104C05D9BFECFFB
:100360008CB9319680818823C9F75D9BFECF8DE0E3
:100370008CB95D9BFECF8AE08CB90895B89AC0987D
:10038000B998C19A0895C09A8AE18A95F1F7C09800
:1003900008951092CC001092CB00B19BFECF80E06C
:1003A00090E032E004C0232F2A95F1F70196B19B2B
:1003B00004C02EE480329207B0F39093CC00809377
:1003C000CB008091CB009091CC000895C09A8AE137
:1003D0008A95F1F7C0981092CC001092CB00B19B97
:1003E000FECF80E090E032E004C0232F2A95F1F7A1
:1003F0000196B19B04C02EE480329207B0F3909333
:10040000CC008093CB008091CB009091CC0063E036
:1004100070E028D0CB010895FB01DC0101900D9222
:100420000020E1F70895629FD001739FF001829F41
:10043000E00DF11D649FE00DF11D929FF00D839F73
:10044000F00D749FF00D659FF00D9927729FB00D10
:10045000E11DF91F639FB00DE11DF91FBD01CF0123
:1004600011240895AA1BBB1B51E107C0AA1FBB1F83
:10047000A617B70710F0A61BB70B881F991F5A9530
:10048000A9F780959095BC01CD01089597FB092EA1
:1004900007260AD077FD04D0E5DF06D000201AF445
:1004A000709561957F4F0895F6F7909581959F4FD0
:1004B000089597FB092E05260ED057FD04D014D0C1
:1004C0000AD0001C38F450954095309521953F4F47
:1004D0004F4F5F4F0895F6F7909580957095619511
:1004E0007F4F8F4F9F4F0895A1E21A2EAA1BBB1B6F
:1004F000FD010DC0AA1FBB1FEE1FFF1FA217B307F0
:10050000E407F50720F0A21BB30BE40BF50B661F05
:10051000771F881F991F1A9469F7609570958095C9
:1005200090959B01AC01BD01CF010895F894FFCFD8
:10053000636D004F42535441434C4520444554455C
:0A054000435445440A004F4B0000ED
:00000001FF
