:100000000C942A000C9447000C9447000C94470071
:100010000C9447000C9447000C9447000C94470044
:100020000C9447000C9447000C9447000C94470034
:100030000C9447000C9447000C9447000C94470024
:100040000C9447000C9447000C9447000C94470014
:100050000C94470011241FBECFE5D4E0DEBFCDBF16
:1000600010E0A0E6B0E0E0E5F1E002C005900D92FE
:10007000A036B107D9F710E0A0E6B0E001C01D92AC
:10008000A036B107E1F70E9449000C94A6000C9439
:1000900000008FB5826A8FBD8EB58B618EBD83ECFB
:1000A00099E097BD86BD81B3806381BB63E171E058
:1000B00028EC30E04AE550E07BBD6ABD80E29EE47A
:1000C000F9013197F1F70197D9F75BBD4ABD80E29D
:1000D0009EE4F9013197F1F70197D9F7EDCF2AB5F1
:1000E0003BB5AC01280F391F2451314038F48AB593
:1000F0009BB5480F591F5BBD4ABD089583E191E050
:100100009BBD8ABD08952AB53BB5AC01281B390BB0
:100110002A35310528F08AB59BB5841B950B02C0A2
:100120008AE590E09BBD8ABD08959BBD8ABD089578
:100130008FB5826A8FBD8EB58B618EBD83EC99E0E1
:1001400097BD86BD81B3806381BB0895F894FFCFCE
:00000001FF
