:100000000C942A000C9447000C9447000C94470071
:100010000C9447000C9447000C9447000C94470044
:100020000C9447000C9447000C9447000C94470034
:100030000C9447000C9447000C9447000C94470024
:100040000C9447000C9447000C9447000C94470014
:100050000C94470011241FBECFE5D4E0DEBFCDBF16
:1000600010E0A0E6B0E0E4E3FBE002C005900D92F2
:10007000A038B107D9F711E0A0E8B0E001C01D92A7
:10008000A132B107E1F70E9449000C9498050C9445
:1000900000007F928F929F92AF92BF92CF92DF9299
:1000A000EF92FF920F931F93DF93CF93CDB7DEB7FD
:1000B000E6970FB6F894DEBF0FBECDBF8FEF87BBBC
:1000C0000E94B60083E390E00E94E40120E137E261
:1000D00045E0E42EF12CEC0EFD1E97E7892E90E012
:1000E000992E6E010894C11CD11C77247A9488EC57
:1000F000A82EB12C05C0C5010197F1F72150304061
:1001000021153105C1F781E00E94BB008C0183E01D
:100110000132180720F018BA60E670E003C078BA20
:1001200068E670E0C7010E943502C7010E94F00135
:100130001F930F939F928F92DF92CF920E943C0267
:10014000C6010E94F0018DE090E00E94EC018AE07F
:1001500090E00E94EC0120E137E28DB79EB7069651
:100160000FB6F8949EBF0FBE8DBFC5CF3E9A86B125
:10017000876886B90895877097B1982B97B997B11A
:10018000886F892387B9369A349BFECF349A24B17D
:1001900035B1C9010895CF93DF93FC01EB014230E3
:1001A00079F46AE070E00E94FD04605D6883CF012D
:1001B0006AE070E00E94FD04805D89831A824BC072
:1001C0004330E1F464E670E00E94FD049C01CF013D
:1001D00064E670E00E94FD04605D6883C9016AE026
:1001E00070E00E94FD04605D6983C9016AE070E00F
:1001F0000E94FD04805D8A831B822DC0443059F526
:1002000068EE73E00E94FD049C01CF0168EE73E08C
:100210000E94FD04605D6883C90164E670E00E948D
:10022000FD04482FE92FC90164E670E00E94FD0437
:10023000605D6983842F9E2F6AE070E00E94FD0458
:10024000605D6A83842F9E2F6AE070E00E94FD0447
:10025000805D8B831C82DF91CF910895382FFB0145
:10026000282F22952F70822F90E00A9714F0295C96
:1002700001C0205D2083832F90E08F709070232F2A
:100280002F700A9714F0295C01C0205D218312822F
:10029000089580538A3008F080E008952F923F92AD
:1002A0004F925F926F927F928F929F92AF92BF9286
:1002B000CF92DF92EF92FF920F931F93DF93CF9332
:1002C000CDB7DEB73B014C0119012A016D897E894A
:1002D0008F89988D6A197B098C099D09621A730AA6
:1002E000840A950AA40193010E94DE04E218F3082F
:1002F00004091509A80197010E9410052A0D3B1D4C
:100300004C1D5D1DB901CA01CF91DF911F910F9165
:10031000FF90EF90DF90CF90BF90AF909F908F9025
:100320007F906F905F904F903F902F900895FC01C9
:10033000613031F48081482F50E04053504042C03A
:10034000623059F480819AE0899FA0011124818153
:10035000480F511D4051524035C0633061F49081C7
:1003600084E6989FA00111248281480F511D405DB1
:100370005441818121C0643019F040E050E022C036
:100380008381482F50E0405D5441808190E0C097C8
:1003900028EE33E0BC01629FC001639F900D729F05
:1003A000900D1124480F591F818124E6829FC001BE
:1003B0001124480F591F82812AE0829FC001112415
:1003C000480F591FCA0108951BB828E92AB926E821
:1003D00020BD90BD89B908955D9BFECF8CB908956D
:1003E000FC0104C05D9BFECF8CB9319680818823CF
:1003F000C9F70895FC0104C05D9BFECF8CB931960E
:1004000080818823C9F75D9BFECF8DE08CB908956C
:10041000FC0104C05D9BFECF8CB93196808188239E
:10042000C9F75D9BFECF8DE08CB95D9BFECF8AE066
:100430008CB90895982F8D3071F08A3061F08091D9
:100440002001E82FF0E0E058FF4F90838F5F80930A
:10045000200180E00895E0912001F0E0E058FF4F96
:1004600010821092200181E00895FB01DC010190CF
:100470000D920020E1F70895AEE0B0E0E2E4F2E092
:100480000C946F050D891E8986E08C831A8309837D
:100490008FEF9FE79E838D83CE014996AC016F89D4
:1004A000788DCE0101960E945F022F813885020F60
:1004B000131FF80110822E96E4E00C948B05ABE03C
:1004C000B0E0E5E6F2E00C9461053C012B015A0135
:1004D000FC0117821682838181FD03C06FEF7FEFDD
:1004E000C8C19AE0892E1E010894211C311CF30119
:1004F0002381F20123FD859123FF81912F01882320
:1005000009F4B4C1853239F423FD859123FF81912B
:100510002F01853229F4B30190E00E945404E7CF03
:10052000982FDD24CC249924FFE1FD15D0F09B32D7
:1005300069F09C3228F4903259F0933291F40EC055
:100540009D3249F0903369F441E024C052E0D52A4D
:1005500084E0D82A28C098E0D92A25C0E0E1DE2A24
:1005600022C0D7FC29C0892F80538A3070F4D6FE70
:1005700005C0989C902C1124980E15C0C89CC02CC6
:100580001124C80EF0E2DF2A0EC09E3229F4D6FCF8
:100590006DC140E4D42A07C09C3619F450E8D52A2E
:1005A00002C0983649F4F20123FD959123FF919101
:1005B0002F01992309F0B8CF892F8554833018F083
:1005C0008052833038F444E050E0A40EB51E5FE35F
:1005D00059830FC0933631F0933779F0933509F092
:1005E00056C020C0F5018081898342E050E0A40E0E
:1005F000B51E710101E010E012C0F501E080F1804C
:10060000D6FC03C06FEF7FEF02C0692D70E042E0BF
:1006100050E0A40EB51EC7010E9449048C015FE79B
:10062000D52214C0F501E080F180D6FC03C06FEF45
:100630007FEF02C0692D70E042E050E0A40EB51ECD
:10064000C7010E943E048C0150E8D52AD3FE07C0A2
:100650001AC0B30180E290E00E945404CA948C2D29
:1006600090E008171907A8F30EC0F701D7FC859191
:10067000D7FE81917F01B30190E00E945404C11024
:10068000CA94015010400115110579F7ECC0943659
:1006900011F0993671F5D7FE08C0F501E080F180C0
:1006A0000281138144E050E00AC0F501808191810C
:1006B0007C010027F7FC0095102F42E050E0A40ECB
:1006C000B51E5FE6D52217FF0AC010950095F0947D
:1006D000E094E11CF11C011D111D80E8D82A2AE0DC
:1006E00030E0A101C801B7010E948004F82EF21881
:1006F00040C0953729F41D2D1F7E2AE030E01DC033
:100700001D2D197F9F3661F0903720F4983509F040
:10071000ADC00FC0903739F0983709F0A7C004C0BA
:1007200028E030E00AC0106114FD146020E130E0E0
:1007300004C014FD166020E132E017FF08C0F50187
:10074000608171818281938144E050E008C0F501AD
:1007500080819181BC0180E090E042E050E0A40EF5
:10076000B51EA1010E948004F82EF2188FE7D82E42
:10077000D122D6FE0BC05EEFD522F91438F4D4FE98
:1007800007C0D2FC05C08FEED82202C01F2D01C0C9
:10079000192DD4FE0DC0FE01EF0DF11D80818033B7
:1007A00019F499EED92208C01F5FD2FE05C003C01C
:1007B0008D2D867809F01F5F0D2DD3FC14C0D0FE5F
:1007C0000FC01C1510F09F2C0BC09F2C9C0C911A75
:1007D0001C2D06C0B30180E290E00E9454041F5F0C
:1007E0001C15C0F304C01C1510F4C11A01C0CC24A0
:1007F00004FF10C0B30180E390E00E94540402FFA4
:100800001EC001FD03C088E790E002C088E590E0CB
:10081000B3010CC0802F867891F001FF02C08BE2FB
:1008200001C080E2D7FC8DE2B30190E00E94540445
:1008300006C0B30180E390E00E9454049A94F91436
:10084000C0F3FA94F101EF0DF11DB301808190E046
:100850000E945404FF20A9F706C0B30180E290E093
:100860000E945404CA94CC20C1F741CEF3016681A2
:100870007781CB012B96E2E10C947D05FC0105907C
:10088000615070400110D8F7809590958E0F9F1F92
:100890000895FC016150704001900110D8F78095D7
:1008A00090958E0F9F1F08950F931F93CF93DF9303
:1008B0008C01EB018B8181FF1BC082FF0DC02E815B
:1008C0003F818C819D812817390764F4E881F98183
:1008D0000193F983E88306C0E885F985802F09959F
:1008E000892B31F48E819F8101969F838E8302C074
:1008F0000FEF1FEFC801DF91CF911F910F91089566
:10090000FA01AA27283051F1203181F1E8946F9340
:100910006E7F6E5F7F4F8F4F9F4FAF4FB1E03ED0E6
:10092000B4E03CD0670F781F891F9A1FA11D680F84
:10093000791F8A1F911DA11D6A0F711D811D911DB7
:10094000A11D20D009F468943F912AE0269F11242C
:100950003019305D3193DEF6CF010895462F477090
:10096000405D4193B3E00FD0C9F7F6CF462F4F70EB
:10097000405D4A3318F0495D31FD4052419302D049
:10098000A9F7EACFB4E0A6959795879577956795EF
:10099000BA95C9F700976105710508959B01AC01EF
:1009A0000A2E06945795479537952795BA95C9F716
:1009B000620F731F841F951FA01D0895629FD001B1
:1009C000739FF001829FE00DF11D649FE00DF11D0A
:1009D000929FF00D839FF00D749FF00D659FF00DB9
:1009E0009927729FB00DE11DF91F639FB00DE11DA6
:1009F000F91FBD01CF011124089597FB092E072689
:100A00000AD077FD04D027D006D000201AF47095C4
:100A100061957F4F0895F6F7909581959F4F0895C2
:100A200097FB092E05260ED057FD04D028D00AD0FA
:100A3000001C38F450954095309521953F4F4F4F0D
:100A40005F4F0895F6F790958095709561957F4F6B
:100A50008F4F9F4F0895AA1BBB1B51E107C0AA1FD0
:100A6000BB1FA617B70710F0A61BB70B881F991F4F
:100A70005A95A9F780959095BC01CD010895A1E202
:100A80001A2EAA1BBB1BFD010DC0AA1FBB1FEE1F08
:100A9000FF1FA217B307E407F50720F0A21BB30B53
:100AA000E40BF50B661F771F881F991F1A9469F7CF
:100AB00060957095809590959B01AC01BD01CF012B
:100AC00008952F923F924F925F926F927F928F92F2
:100AD0009F92AF92BF92CF92DF92EF92FF920F93CD
:100AE0001F93CF93DF93CDB7DEB7CA1BDB0B0FB6D7
:100AF000F894DEBF0FBECDBF09942A883988488894
:100B00005F846E847D848C849B84AA84B984C88429
:100B1000DF80EE80FD800C811B81AA81B981CE0F20
:100B2000D11D0FB6F894DEBF0FBECDBFED01089505
:040B3000F894FFCF67
:100B34006E6F726D616C0A0066697265206465741B
:100B440065637465640A006164633D25640A00009A
:00000001FF
