:100000000C942A000C9447000C9447000C94470071
:100010000C9447000C9447000C9447000C94470044
:100020000C9447000C9447000C9447000C94470034
:100030000C9447000C9447000C9447000C94470024
:100040000C9447000C9447000C9447000C94470014
:100050000C94470011241FBECFE5D4E0DEBFCDBF16
:1000600010E0A0E6B0E0E4E9F6E002C005900D92F1
:10007000A238B107D9F710E0A2E8B0E001C01D92A4
:10008000A238B107E1F70E9449000C9448030C9490
:1000900000000E949C0180E690E00E9430028CE605
:1000A00090E00E94510280E090E00895CF93DF93AA
:1000B000FC01EB01423079F46AE070E00E94E40256
:1000C000605D6883CF016AE070E00E94E402805DB9
:1000D00089831A824BC04330E1F464E670E00E94E9
:1000E000E4029C01CF0164E670E00E94E402605DDE
:1000F0006883C9016AE070E00E94E402605D698380
:10010000C9016AE070E00E94E402805D8A831B827C
:100110002DC0443059F568EE73E00E94E4029C0162
:10012000CF0168EE73E00E94E402605D6883C9015C
:1001300064E670E00E94E402482FE92FC90164E6FA
:1001400070E00E94E402605D6983842F9E2F6AE064
:1001500070E00E94E402605D6A83842F9E2F6AE053
:1001600070E00E94E402805D8B831C82DF91CF915E
:100170000895382FFB01282F22952F70822F90E0B1
:100180000A9714F0295C01C0205D2083832F90E042
:100190008F709070232F2F700A9714F0295C01C084
:1001A000205D21831282089580538A3008F080E018
:1001B00008952F923F924F925F926F927F928F920B
:1001C0009F92AF92BF92CF92DF92EF92FF920F93E6
:1001D0001F93DF93CF93CDB7DEB73B014C011901DD
:1001E0002A016D897E898F89988D6A197B098C090E
:1001F0009D09621A730A840A950AA40193010E9458
:10020000C502E218F30804091509A80197010E9424
:10021000F7022A0D3B1D4C1D5D1DB901CA01CF918E
:10022000DF911F910F91FF90EF90DF90CF90BF90E3
:10023000AF909F908F907F906F905F904F903F9086
:100240002F900895FC01613031F48081482F50E0F7
:100250004053504042C0623059F480819AE0899FF7
:10026000A00111248181480F511D4051524035C0D9
:10027000633061F4908184E6989FA001112482810B
:10028000480F511D405D5441818121C0643019F0F7
:1002900040E050E022C08381482F50E0405D54414F
:1002A000808190E0C09728EE33E0BC01629FC001DE
:1002B000639F900D729F900D1124480F591F8181EB
:1002C00024E6829FC0011124480F591F82812AE031
:1002D000829FC0011124480F591FCA010895282F79
:1002E000207F98B3922B98BB98B32F60292328BB0B
:1002F000C29A98B39C7F98BB20ED37E0F901319703
:10030000F1F798B3987F98BBE0E2FEE43197F1F7FC
:100310008295807F98B3982B98BB98B38F60892380
:1003200088BBC29A88B38C7F88BBC9010197F1F75B
:1003300088B3887F88BB089587B38FEF87BB88E831
:1003400093E128EC30E0F9013197F1F70197D9F703
:1003500083E30E946F0188EE93E028EC30E0F9011E
:100360003197F1F70197D9F782E30E946F0188EE88
:1003700093E028EC30E0F9013197F1F70197D9F7D4
:1003800088E20E946F0188EE93E028EC30E0F901EA
:100390003197F1F70197D9F78CE00E946F0188EE51
:1003A00093E028EC30E0F9013197F1F70197D9F7A4
:1003B00081E00E946F0188EE93E028EC30E0F901C3
:1003C0003197F1F70197D9F786E00E946F0188EE27
:1003D00093E028EC30E0F9013197F1F70197D9F774
:1003E00082E00E946F0180ED97E028EC30E0F90197
:1003F0003197F1F70197D9F7089598B3982B98BBE7
:1004000098B38F60982398BBC29A88B38C7F88BBBF
:1004100080ED97E00197F1F788B3887F88BB089556
:1004200098B3982B98BB98B38F60982398BB88B3E8
:10043000856088BBC19880ED97E00197F1F7C09A7D
:1004400088B3897F88BB08951F93182F807F0E94EF
:100450001002812F8295807F0E9410021F910895C3
:100460000F931F93CF93DF93182F092F80E80E94DB
:100470006F0180E49CE90197F1F7212F302FC9012A
:10048000EC0100E117E205C00E942402C8010197B7
:10049000F1F789918823C1F7DF91CF911F910F91D7
:1004A00008950F931F93CF93DF93182F092F80EC9C
:1004B0000E946F0180E49CE90197F1F7212F302F12
:1004C000C901EC0100E117E205C00E942402C80145
:1004D0000197F1F789918823C1F7DF91CF911F919F
:1004E0000F9108950F931F93CF93DF93142F052F30
:1004F000813019F4862F805802C0862F80540E94C4
:100500006F0180E49CE90197F1F7812F902F9C0106
:10051000E90100E117E205C00E942402C801019729
:10052000F1F789918823C1F7DF91CF911F910F9146
:1005300008950F931F93CF93DF93162F072F0E94D9
:100540006F0180E49CE90197F1F7212F302FC90159
:10055000EC0100E117E205C00E942402C8010197E6
:10056000F1F789918823C1F7DF91CF911F910F9106
:100570000895813029F481E790E00E9430020895C7
:1005800081E790E00E9451020895629FD001739F1D
:10059000F001829FE00DF11D649FE00DF11D929F1F
:1005A000F00D839FF00D749FF00D659FF00D99275E
:1005B000729FB00DE11DF91F639FB00DE11DF91F82
:1005C000BD01CF011124089597FB092E07260AD0FB
:1005D00077FD04D027D006D000201AF470956195DD
:1005E0007F4F0895F6F7909581959F4F089597FB5B
:1005F000092E05260ED057FD04D028D00AD0001CA5
:1006000038F450954095309521953F4F4F4F5F4FAF
:100610000895F6F790958095709561957F4F8F4F6F
:100620009F4F0895AA1BBB1B51E107C0AA1FBB1F08
:10063000A617B70710F0A61BB70B881F991F5A956E
:10064000A9F780959095BC01CD010895A1E21A2EDD
:10065000AA1BBB1BFD010DC0AA1FBB1FEE1FFF1F66
:10066000A217B307E407F50720F0A21BB30BE40BB6
:10067000F50B661F771F881F991F1A9469F76095FD
:100680007095809590959B01AC01BD01CF010895B7
:04069000F894FFCF0C
:1006940048454C4C4F20574F524C4400746573747A
:1006A4000020202020202020202020202020202066
:0206B400200024
:00000001FF
