:1000000012C02CC02BC02AC029C028C027C026C0BF
:1000100025C024C023C022C021C020C01FC01EC0D4
:100020001DC01CC01BC011241FBECFE5D4E0DEBF25
:10003000CDBF10E0A0E6B0E0E6E9F0E002C0059038
:100040000D92A036B107D9F710E0A0E6B0E001C0EC
:100050001D92A036B107E1F702D01BC0D1CF89981D
:10006000889A909828EC30E0919A819B09C09098EA
:1000700080E197E2F9013197F1F70197D9F7F4CFD1
:10008000909A80E197E2F9013197F1F70197D9F75A
:06009000EBCFF894FFCF56
:00000001FF
